:020000040800F2
:10000000200400204501000815060008B10500087D
:1000100011060008670400083F0E000800000000F9
:100020000000000000000000000000004908000877
:100030006B040008000000003107000835090008C3
:100040005F0100085F0100085F0100085F01000810
:100050005F0100085F0100085F0100085F01000800
:100060005F0100085F0100085F0100085F010008F0
:100070005F0100085F0100085F0100085F010008E0
:100080005F0100085F0100085F0100085F010008D0
:100090005F0100085F0100085F0100085F010008C0
:1000A0005F0100085F0100085F0100085F010008B0
:1000B0005F0100085F0100085F0100085F010008A0
:1000C0005F0100085F0100085F0100085F01000890
:1000D0005F010008850B00085F0100085F01000850
:1000E0005F0100085F0100085F0100085F01000870
:1000F0005F0100085F0100085F0100085F01000860
:100100005F0100085F0100085F0100085F0100084F
:100110005F0100085F010008990900085F010008FD
:100120005F0100085F0100085F0100085F0100082F
:10013000DFF80CD000F03AF900480047FD0F000846
:10014000200400200648804706480047FEE7FEE7F7
:10015000FEE7FEE7FEE7FEE7FEE7FEE7FEE7FEE777
:1001600039090008310100082DE9F04D81EA030446
:1001700004F0004B21F0004514464FF0000A23F034
:10018000004150EA050220D054EA01021DD0C5F317
:100190000A570246C5F31303C1F31300C1F30A560D
:1001A00040F4801543F48013A7EB0608101BD646D5
:1001B00008F2FD3873EB050002D308F1010801E0F5
:1001C00092185B41B8F1000F03DA00200146BDE848
:1001D000F08D00204FF48011064684460EE0171B78
:1001E00073EB050705D3121B63EB050306434CEACB
:1001F000010C49084FEA300092185B4150EA0107B0
:10020000EDD152EA030012D082EA040083EA05012C
:10021000084305D0101BAB4106D20122002306E0A3
:1002200000224FF0004302E06FF0010253101AEB7E
:1002300006004CEB085110EB0A0041EB0B01BDE846
:10024000F04D00F056B80EB5C10F80EAE0700844DA
:10025000CA07002140F233438DE80E000A460B46E0
:1002600000F056F803B000BD70B5C1F30A5201F0BA
:1002700000450024C1F3130140F2FF3341F4801123
:100280009A4201DA002070BD40F233439A42A2F252
:10029000334203DC524200F01CF800E090402C4353
:1002A000F1D0404270BD30B50B46014600202022FF
:1002B000012409E021FA02F59D4205D303FA02F573
:1002C000491B04FA02F52844151EA2F10102F1DCD3
:1002D00030BD202A04DB203A21FA02F000217047C9
:1002E00021FA02F3D040C2F120029140084319469E
:1002F000704710B5141E73F1000408DA401C41F178
:10030000000192185B411A4301D120F0010010BD99
:100310002DE9F04D92469B4611B1B1FA81F202E00F
:10032000B0FA80F22032904600F052F804460F46B0
:1003300040EA0A0041EA0B0153465A46084313D0EB
:10034000114653EA010019D0C8F140025046FFF7A8
:10035000C0FF05460E4650465946424600F038F862
:10036000084305D0012004E020463946BDE8F08D61
:100370000020054346EAE0762C4337430A9863059C
:10038000E40AA0EB08000022FD0A44EA47540A30C0
:1003900002D500200146E9E7010510196941DDE9B0
:1003A000084500196941BDE8F04DA2E7064C074D2C
:1003B00006E0E06840F0010394E807009847103435
:1003C000AC42F6D3FFF7B8FE6010000880100008BA
:1003D000202A04DB203A00FA02F100207047914005
:1003E000C2F1200320FA03F319439040704710B57F
:1003F00000F024F800F002F810BD00000EB5012155
:10040000102000F097F940F2E730ADF804004720E3
:10041000ADF800006946084800F062FB012106487B
:1004200000F0DAFA01221146034800F0F8FA002140
:10043000014800F0D7FA0EBD0010004008B54FF497
:10044000E06000F033F936208DF8000000208DF8D0
:10045000010003208DF8020001208DF8030068469A
:1004600000F0ECF808BD00BFFEE770472DE9F04151
:10047000024600250026002000230024002791F8D2
:1004800003C00CF00F0591F803C00CF0100CBCF188
:10049000000F03D091F802C04CEA050591F800C0A6
:1004A000BCF1000F31D0146800202BE04FF0010C9C
:1004B0000CFA00F3B1F800C00CEA03069E4220D10A
:1004C00083004FF00F0C0CFA03F7BC4305FA03FC52
:1004D0004CEA040491F803C0BCF1280F06D14FF098
:1004E000010C0CFA00FCC2F814C00AE091F803C039
:1004F000BCF1480F05D14FF0010C0CFA00FCC2F81A
:1005000010C0401C0828D1D31460B1F800C0BCF161
:10051000FF0F34DD546800202EE000F1080C4FF08E
:10052000010808FA0CF3B1F800C00CEA03069E4279
:1005300021D183004FF00F0C0CFA03F7BC4305FAEE
:1005400003FC4CEA040491F803C0BCF1280F05D168
:1005500000F1080C08FA0CF8C2F8148091F803C0F6
:10056000BCF1480F07D100F1080C4FF0010808FA60
:100570000CF8C2F81080401C0828CED35460BDE8A7
:10058000F081000008B50121082000F0E3F81820F0
:100590008DF803004020ADF8000003208DF8020024
:1005A00069460248FFF762FF08BD0000000C0140E9
:1005B00000BFFEE72DE9F04704462046FFF743FE63
:1005C000074600220D4BFFF7CFFD0546FFF74CFE17
:1005D000814621460AA000F035FCA1B20A4800F08D
:1005E0002AFC0221094800F078FA484600F01EFD76
:1005F0000321064800F071FABDE8F0870040404052
:100600002564206C656E0A00003801400008004037
:1006100000BFFEE7704708B54FF4A06000F046F851
:1006200025208DF8000001208DF801008DF80200D2
:100630008DF80300684600F001F808BD70B5002190
:1006400000230F22C47804B3154C246804F4E0643A
:10065000C4F5E064210AC1F10403CA40447804FAF5
:1006600003F184781440214309010E4C0678A1550A
:10067000047804F01F050124AC4005786D11AD002D
:1006800005F1E025C5F8004109E0047804F01F05F4
:100690000124AC40044D0678761145F8264070BD23
:1006A0000CED00E000E400E080E100E002490143DD
:1006B000024A1160704700000000FA050CED00E0EE
:1006C00000B587B0FFF75EFF0121042000F032F88B
:1006D00048F69F40ADF810000020ADF81600ADF8C8
:1006E00012002820ADF8140004A9104800F0F8F911
:1006F0006020ADF800000120ADF802000320ADF845
:1007000006000020ADF808006946084800F090F99E
:100710000821064800F0D8F90121044800F050F9FA
:100720000121024800F05EF907B000BD000800405A
:100730007047000029B1064AD2690243044BDA61CE
:1007400004E0034AD2698243014BDA61704700003A
:100750000010024029B1064A92690243044B9A6193
:1007600004E0034A92698243014B9A61704700009A
:100770000010024030B500210022002400232D4D3E
:100780006D6805F00C0121B1042905D0082923D199
:1007900005E0294D056022E0274D05601FE0254D4D
:1007A0006D6805F47012234D6D6805F480340225E0
:1007B00005EB92421CB9214D554305600BE01D4DE0
:1007C0006D6805F400351DB11C4D5543056002E010
:1007D000194D5543056002E0174D056000BF00BF8D
:1007E000144D6D6805F0F0010909154D6B5C056845
:1007F000DD4045600F4D6D6805F4E061090A104D5C
:100800006B5C4568DD4085600A4D6D6805F460519C
:10081000C90A0B4D6B5C4568DD40C560054D6D68D0
:1008200005F44041890B074D6B5CC568B5FBF3F5DA
:10083000056130BD0010024000127A0000093D0041
:100840000000002010000020704710B500F002F8F2
:1008500010BD00000CB500200190009033480068E6
:1008600040F480303149086000BF3048006800F42F
:10087000003000900198401C0190009818B9019830
:10088000B0F5A06FF1D12948006800F4003010B134
:100890000120009001E0002000900098012843D141
:1008A0002348006840F010002149086008460068AD
:1008B00020F0030008600846006840F0020008606D
:1008C0001A48406819494860084640684860084628
:1008D000406840F4806048600846406820F47C101E
:1008E00048600846406840F4E810486008460068E0
:1008F00040F08070086000BF0C48006800F0007095
:100900000028F9D00948406820F0030007494860F2
:100910000846406840F00200486000BF0348406855
:1009200000F00C000828F9D10CBD000000100240B6
:10093000002002407047000010B51348006840F0E6
:1009400001001149086008464068104908400E49F6
:100950004860084600680E4908400B490860084690
:10096000006820F4802008600846406820F4FE00FB
:1009700048604FF41F008860FFF767FF4FF000608A
:100980000449086010BD0000001002400000FFF89C
:10099000FFFFF6FE08ED00E010B50121064800F06B
:1009A0002DF840B105480068401C04490860012149
:1009B000014800F014F810BD00100040180000209D
:1009C00021B1028842F08002028004E002884FF6E2
:1009D0007F731A4002807047CA4302827047CA433D
:1009E0000282704721B1028842F00102028004E0D5
:1009F00002884FF6FE731A400280704730B50246F7
:100A0000002000230024158A05EA0103958905EAE0
:100A1000010413B10CB1012000E0002030BD1AB177
:100A200083890B43838102E083898B4383817047F1
:100A300070B5002400220023058C4FF6FE76354069
:100A40000584028C8388048B4FF68F752C40B51E6D
:100A50002C400D882C43751E2A400D892A434D8851
:100A60002A43144DA8420BD0134DA84208D0134D71
:100A7000A84205D0124DA84202D0124DA84213D16F
:100A80004FF6F7752A404D892A434FF6FB752A40E9
:100A90008D882A434FF6FF652B404FF6FF552B40BC
:100AA0008D892B43CD892B4383800483CD88858614
:100AB000028470BD002C0140003401400040014020
:100AC00000440140004801400A460021018B4FF6D6
:100AD000F773194011430183704781867047000006
:100AE000002202881D4B98420ED01D4B98420BD01D
:100AF000B0F1804F08D01B4B984205D01A4B98425A
:100B000002D01A4B984204D14FF68F731A404B888B
:100B10001A43174B984207D0164B984204D04FF611
:100B2000FF431A40CB881A4302808B8883850B8849
:100B300003850A4B98420BD0094B984208D00E4BC4
:100B4000984205D00D4B984202D00D4B984201D1EE
:100B50000B7A03860123838270470000002C01403A
:100B6000003401400004004000080040000C004038
:100B700000100040001400400040014000440140CB
:100B80000048014010B508210C4800F087F818B162
:100B900008210A4800F016F840F22551074800F0F5
:100BA0008AF848B140F22551044800F014F803488F
:100BB00000F03CF90249086010BD00000038014017
:100BC0001400002001F40072B2F5007F00D100BFD4
:100BD000CA430280704710B50022002340F66A1411
:100BE000A14200D100BF0A1201249440A3B2DC4309
:100BF000048010BD21B1828942F40052828104E058
:100C000082894DF6FF731A408281704700B585B026
:100C100001210420FFF79EFD01218803FFF79AFDC3
:100C20004FF40070ADF8100018208DF81300032069
:100C30008DF8120004A91748FFF718FC4FF48060E4
:100C4000ADF8100004208DF8130004A91148FFF737
:100C50000DFC4FF4E13000900020ADF80400ADF839
:100C60000600ADF80800ADF80C000C20ADF80A0045
:100C70006946094800F06EF8FFF7CDFC012240F20A
:100C80002551054800F041F801210348FFF7B2FF64
:100C900005B000BD000801400038014002460020B8
:100CA000B1F5007F00D100BF13880B400BB10120CC
:100CB00000E00020704770B50246002400230025A4
:100CC000002040F66A16B14200D100BFC1F34215C0
:100CD00001F01F03012606FA03F3012D02D19689C4
:100CE000334006E0022D02D1168A334001E0968A95
:100CF00033400C12012606FA04F41688344013B16E
:100D00000CB1012000E0002070BDF0B503460024C6
:100D100000260025002040F66A17B94200D100BF26
:100D20001846C1F3421401F01F06012707FA06F521
:100D3000012C01D10C3004E0022C01D1103000E074
:100D400014301AB107682F43076002E00768AF4309
:100D50000760F0BD2DE9F04786B005460E46002439
:100D6000A24600BFA1460027B08900B100BF2F46B0
:100D70002C8A4CF6FF700440F08804432C82AC8926
:100D80004EF6F3100440B088318908437189084356
:100D90000443AC81AC8A4FF6FF400440B089044361
:100DA000AC8201A8FFF7E6FC1F48874202D1DDF8BC
:100DB00010A001E0DDF80CA0A88900F4004040B1CB
:100DC0000AEBCA0000EB0A1031684900B0FBF1F8E9
:100DD00007E00AEBCA0000EB0A1031688900B0FB9B
:100DE000F1F86420B8FBF0F004012009642101FB54
:100DF0001089A88900F4004040B1322000EBC900FE
:100E0000B0FBF1F000F00700044308E0322000EBF3
:100E100009106421B0FBF1F000F00F0004432C81B5
:100E200006B0BDE8F0870000003801400146888820
:100E3000C0F308007047C1F308028280704700BF0A
:100E4000FEE700000FB4054B10B503A9044A029851
:100E500000F018F810BC5DF814FB0000D90F000872
:100E60001C00002002E008C8121F08C1002AFAD1A5
:100E700070477047002001E001C1121F002AFBD11A
:100E8000704700002DE9FF4F89B09B4604460025BE
:100E900006E025280BD05A460B999047641C6D1C20
:100EA00020780028F5D10DB02846BDE8F08F002746
:100EB000B8460122474900E0074314F8013F203BB0
:100EC00002FA03F00842F7D120782E2819D114F83D
:100ED000010F47F004072A280ED06FF02F02207868
:100EE000A0F1300109290CD808EB880102EB41017F
:100EF00000EB0108641CF2E70A98641C50F8048BAC
:100F00000A9020780028CED0642808D0692806D01E
:100F100075281ED05A460B9990476D1C58E00A99C7
:100F20004FF00A0901C90A91002802DA40422D2136
:100F300002E0390504D52B218DF82010012103E0B2
:100F4000F90704D02021F7E78A4608AE0DE000211A
:100F5000FAE70A994FF00A0901C90A91F7E74946E9
:100F6000FFF7A1F9303106F8011D0028F7D1ADEBEC
:100F7000060000F12009780701D44FF00108C845A8
:100F800002DDA8EB090000E000208046002706E013
:100F900008A85A46C05D0B9990476D1C7F1C5745A9
:100FA000F6DB04E030205A460B9990476D1CB8F1EF
:100FB0000001A8F10108F5DC05E016F8010B5A461E
:100FC0000B9990476D1CB9F10001A9F10109F4DCFE
:100FD000641C65E70928010070B504460D46E1B2BE
:100FE0000548FFF728FF00BF80210348FFF756FEA2
:100FF0000028F9D0204670BD00380140FFF706FEFA
:10100000FFF7F5F9FFF75CFB0DE000BF064800684D
:10101000401C0028FAD004480068FFF7CBFA4FF0D4
:10102000FF3001490860F0E71400002010B50446C5
:1010300000200949086001210848FFF7CDFC012183
:101040000648FFF7CFFC00BF03480068A042FBDB67
:1010500000200149086010BD180000200010004069
:10106000801000080000002020000000640E00082E
:10107000A01000082000002000040000740E0008EA
:10108000000000000102030401020304060708092E
:1010900002040608FFFFFFFF000000000000000040
:0400000508000131BD
:00000001FF
