:020000040800F2
:100000001804002045010008E106000885060008E4
:10001000DD0600083B050008A70E000800000000F0
:1000200000000000000000000000000015090008AA
:100030003F05000800000000FD070008010A000855
:100040005F0100085F0100085F0100085F01000810
:100050005F0100085F0100085F0100085F01000800
:100060005F0100085F0100085F0100085F010008F0
:100070005F0100085F0100085F0100085F010008E0
:100080005F0100085F0100085F0100085F010008D0
:100090005F0100085F0100085F0100085F010008C0
:1000A0005F0100085F0100085F0100085F010008B0
:1000B0005F0100085F0100085F0100085F010008A0
:1000C0005F0100085F0100085F0100085F01000890
:1000D0005F010008510C00085F0100085F01000883
:1000E0005F0100085F0100085F0100085F01000870
:1000F0005F0100085F0100085F0100085F01000860
:100100005F0100085F0100085F0100085F0100084F
:100110005F0100085F010008650A00085F01000830
:100120005F0100085F0100085F0100085F0100082F
:10013000DFF80CD000F094F900480047C90E000821
:10014000180400200648804706480047FEE7FEE7FF
:10015000FEE7FEE7FEE7FEE7FEE7FEE7FEE7FEE777
:10016000050A00083101000880EA010210B502F01A
:100170000043400022D04A001FD0010E01EB126163
:10018000C0F35600C2F3560240F4000042F40002ED
:10019000A0FB022000047F39140400D0401C50EA68
:1001A000124001D44000491EC2B20C0604EBD0102C
:1001B000401C4008802A02D003E0002010BD20F03F
:1001C0000100002900DA0020184310BD2DE9F04D90
:1001D00081EA030404F0004B21F0004514464FF07F
:1001E000000A23F0004150EA050220D054EA01023F
:1001F0001DD0C5F30A570246C5F31303C1F313001C
:10020000C1F30A5640F4801543F48013A7EB0608A7
:10021000101BD64608F2FD3873EB050002D308F137
:10022000010801E092185B41B8F1000F03DA0020E9
:100230000146BDE8F08D00204FF48011064684464B
:100240000EE0171B73EB050705D3121B63EB0503C9
:1002500006434CEA010C49084FEA300092185B4112
:1002600050EA0107EDD152EA030012D082EA0400FD
:1002700083EA0501084305D0101BAB4106D20122D9
:10028000002306E000224FF0004302E06FF001027D
:1002900053101AEB06004CEB085110EB0A0041EB2F
:1002A0000B01BDE8F04D00F07DB80EB5C10F80EA3E
:1002B000E0700844CA07002140F233438DE80E0085
:1002C0000A460B4600F07DF803B000BD00F0004286
:1002D00020F00040C10DC0F3160040F400007F295B
:1002E00001DA00207047962903DCC1F19601C8406D
:1002F00001E096398840002AF4D04042704701F06E
:10030000004330B421F0004150EA010206D00A0D4A
:10031000A2F56072C1F31301002A02DC30BC002098
:100320007047440F44EAC104C100E01830BC00EB40
:10033000C250AFF300800029A8BF7047401C49009D
:1003400008BF20F00100704710B4B0FA80FC00FA3A
:100350000CF050EA010404BF10BC704749B1CCF165
:10036000200421FA04F411FA0CF118BF01212143F1
:100370000843A3EB0C01CB1D4FEA00614FEA1020AC
:1003800042BF002010BC704700EBC350104400294E
:10039000A4BF10BC7047401C490008BF20F00100FA
:1003A00010BC704710B5141E73F1000408DA401C2D
:1003B00041F1000192185B411A4301D120F0010084
:1003C00010BD2DE9F04D92469B4611B1B1FA81F274
:1003D00002E0B0FA80F22032904600F053F8044672
:1003E0000F4640EA0A0041EA0B0153465A460843C9
:1003F00013D0114653EA010019D0C8F1400250460B
:1004000000F04FF805460E4650465946424600F069
:1004100039F8084305D0012004E020463946BDE8FC
:10042000F08D0020054346EAE0762C4337430A98D6
:100430006305E40AA0EB08000022FD0A44EA4754E1
:100440000A3002D500200146E9E70105101969418B
:10045000DDE9084500196941BDE8F04DA2E700005B
:10046000064C074D06E0E06840F0010394E8070001
:1004700098471034AC42F6D3FFF75EFE140F000825
:10048000340F0008202A04DB203A00FA02F1002091
:1004900070479140C2F1200320FA03F319439040C2
:1004A0007047202A04DB203A21FA02F0002170472D
:1004B00021FA02F3D040C2F12002914008431946CC
:1004C000704710B500F024F800F002F810BD0000ED
:1004D0000EB50121102000F093F940F2E730ADF89D
:1004E00004004720ADF800006946084800F05EFBB4
:1004F0000121064800F0D6FA01221146034800F017
:10050000F4FA0021014800F0D3FA0EBD00100040BB
:1005100008B54FF4E06000F02FF936208DF80000A8
:1005200000208DF8010003208DF8020001208DF8D5
:100530000300684600F0E8F808BD00BFFEE770471A
:100540002DE9F0410246002500260020002300246A
:10055000002791F803C00CF00F0591F803C00CF0D0
:10056000100CBCF1000F03D091F802C04CEA050555
:1005700091F800C0BCF1000F31D0146800202BE0CE
:100580004FF0010C0CFA00F3B1F800C00CEA0306BE
:100590009E4220D183004FF00F0C0CFA03F7BC43AE
:1005A00005FA03FC4CEA040491F803C0BCF1280FDF
:1005B00006D14FF0010C0CFA00FCC2F814C00AE09E
:1005C00091F803C0BCF1480F05D14FF0010C0CFAB3
:1005D00000FCC2F810C0401C0828D1D31460B1F848
:1005E00000C0BCF1FF0F34DD546800202EE000F1A4
:1005F000080C4FF0010808FA0CF3B1F800C00CEA3F
:1006000003069E4221D183004FF00F0C0CFA03F732
:10061000BC4305FA03FC4CEA040491F803C0BCF1A6
:10062000280F05D100F1080C08FA0CF8C2F8148064
:1006300091F803C0BCF1480F07D100F1080C4FF04E
:10064000010808FA0CF8C2F81080401C0828CED324
:100650005460BDE8F081000008B50121082000F0D9
:10066000DFF818208DF803004020ADF800000320CB
:100670008DF8020069460248FFF762FF08BD0000DE
:10068000000C014000BFFEE72DE9F05F0446204664
:10069000FFF70BFE074600220D4BFFF797FD0546BF
:1006A000FFF72DFE83460B49FFF75EFD8246FFF7FD
:1006B0000DFE81460221084800F075FA484600F018
:1006C0000FFC0321044800F06EFABDE8F09F000023
:1006D0000040404000007A440008004000BFFEE7B0
:1006E000704708B54FF4A06000F046F825208DF85B
:1006F000000001208DF801008DF802008DF8030044
:10070000684600F001F808BD70B5002100230F22F3
:10071000C47804B3154C246804F4E064C4F5E064C0
:10072000210AC1F10403CA40447804FA03F1847831
:100730001440214309010E4C0678A155047804F0B9
:100740001F050124AC4005786D11AD0005F1E025D1
:10075000C5F8004109E0047804F01F050124AC400D
:10076000044D0678761145F8264070BD0CED00E08A
:1007700000E400E080E100E002490143024A116028
:10078000704700000000FA050CED00E000B587B0EE
:10079000FFF762FF0121042000F032F848F69F4085
:1007A000ADF810000020ADF81600ADF812002820BA
:1007B000ADF8140004A9104800F0F8F96020ADF875
:1007C00000000120ADF802000320ADF80600002073
:1007D000ADF808006946084800F090F9082106487D
:1007E00000F0D8F90121044800F050F90121024835
:1007F00000F05EF907B000BD00080040704700003F
:1008000029B1064AD2690243044BDA6104E0034A83
:10081000D2698243014BDA61704700000010024048
:1008200029B1064A92690243044B9A6104E0034AE3
:1008300092698243014B9A617047000000100240A8
:1008400030B500210022002400232D4D6D6805F0F5
:100850000C0121B1042905D0082923D105E0294D37
:10086000056022E0274D05601FE0254D6D6805F409
:100870007012234D6D6805F48034022505EB924219
:100880001CB9214D554305600BE01D4D6D6805F405
:1008900000351DB11C4D5543056002E0194D55430F
:1008A000056002E0174D056000BF00BF144D6D6884
:1008B00005F0F0010909154D6B5C0568DD404560E8
:1008C0000F4D6D6805F4E061090A104D6B5C4568D9
:1008D000DD4085600A4D6D6805F46051C90A0B4D15
:1008E0006B5C4568DD40C560054D6D6805F44041B1
:1008F000890B074D6B5CC568B5FBF3F5056130BD31
:100900000010024000127A0000093D0000000020A3
:1009100010000020704710B500F002F810BD000074
:100920000CB50020019000903348006840F48030FE
:100930003149086000BF3048006800F40030009082
:100940000198401C0190009818B90198B0F5A06F6B
:10095000F1D12948006800F4003010B10120009066
:1009600001E0002000900098012843D1234800684E
:1009700040F01000214908600846006820F003009C
:1009800008600846006840F0020008601A484068A5
:10099000194948600846406848600846406840F485
:1009A000806048600846406820F47C104860084633
:1009B000406840F4E81048600846006840F08070E5
:1009C000086000BF0C48006800F000700028F9D0F3
:1009D0000948406820F0030007494860084640681D
:1009E00040F00200486000BF0348406800F00C007F
:1009F0000828F9D10CBD0000001002400020024080
:100A00007047000010B51348006840F0010011491C
:100A1000086008464068104908400E49486008468A
:100A200000680E4908400B4908600846006820F439
:100A3000802008600846406820F4FE0048604FF4BB
:100A40001F008860FFF767FF4FF0006004490860EF
:100A500010BD0000001002400000FFF8FFFFF6FE8E
:100A600008ED00E010B50121064800F02DF840B176
:100A700005480068401C044908600121014800F055
:100A800014F810BD001000401400002021B10288AD
:100A900042F08002028004E002884FF67F731A4021
:100AA00002807047CA4302827047CA43028270477D
:100AB00021B1028842F00102028004E002884FF670
:100AC000FE731A400280704730B5024600200023B2
:100AD0000024158A05EA0103958905EA010413B18A
:100AE0000CB1012000E0002030BD1AB183890B4316
:100AF000838102E083898B438381704770B5002432
:100B000000220023058C4FF6FE7635400584028CCA
:100B10008388048B4FF68F752C40B51E2C400D88B2
:100B20002C43751E2A400D892A434D882A43144DB3
:100B3000A8420BD0134DA84208D0134DA84205D0AF
:100B4000124DA84202D0124DA84213D14FF6F775AC
:100B50002A404D892A434FF6FB752A408D882A4347
:100B60004FF6FF652B404FF6FF552B408D892B43E9
:100B7000CD892B4383800483CD888586028470BD14
:100B8000002C01400034014000400140004401407D
:100B9000004801400A460021018B4FF6F7731940C7
:100BA000114301837047818670470000002202884C
:100BB0001D4B98420ED01D4B98420BD0B0F1804F88
:100BC00008D01B4B984205D01A4B984202D01A4BC2
:100BD000984204D14FF68F731A404B881A43174B33
:100BE000984207D0164B984204D04FF6FF431A4064
:100BF000CB881A4302808B8883850B8803850A4B38
:100C000098420BD0094B984208D00E4B984205D021
:100C10000D4B984202D00D4B984201D10B7A0386BE
:100C20000123838270470000002C01400034014002
:100C30000004004000080040000C0040001000408C
:100C400000140040004001400044014000480140C1
:100C500010B540F22551064800F060F838B104485C
:100C600000F018F9C4B22146014800F018F910BD8F
:100C70000038014021B1828942F40052828104E0AF
:100C800082894DF6FF731A408281704700B585B0A6
:100C900001210420FFF7C4FD01218803FFF7C0FDF7
:100CA0004FF40070ADF8100018208DF813000320E9
:100CB0008DF8120004A91748FFF742FC4FF480603A
:100CC000ADF8100004208DF8130004A91148FFF7B7
:100CD00037FC4FF4E13000900020ADF80400ADF88F
:100CE0000600ADF80800ADF80C000C20ADF80A00C5
:100CF0006946094800F062F8FFF7F3FC012240F270
:100D00002551054800F034F801210348FFF7B2FFF0
:100D100005B000BD000801400038014070B5024632
:100D2000002400230025002040F66A16B14200D1BD
:100D300000BFC1F3421501F01F03012606FA03F3B9
:100D4000012D02D19689334006E0022D02D1168A88
:100D5000334001E0968A33400C12012606FA04F46F
:100D60001688344013B10CB1012000E0002070BDA2
:100D7000F0B50346002400260025002040F66A173F
:100D8000B94200D100BF1846C1F3421401F01F065A
:100D9000012707FA06F5012C01D10C3004E0022CE2
:100DA00001D1103000E014301AB107682F430760FA
:100DB00002E00768AF430760F0BD00002DE9F0478F
:100DC00086B005460E460024A24600BFA146002775
:100DD000B08900B100BF2F462C8A4CF6FF7004404A
:100DE000F08804432C82AC894EF6F3100440B0889E
:100DF00031890843718908430443AC81AC8A4FF6BA
:100E0000FF400440B0890443AC8201A8FFF718FDFD
:100E10001F48874202D1DDF810A001E0DDF80CA0E8
:100E2000A88900F4004040B10AEBCA0000EB0A10A8
:100E300031684900B0FBF1F807E00AEBCA0000EBAB
:100E40000A1031688900B0FBF1F86420B8FBF0F0BB
:100E500004012009642101FB1089A88900F40040E5
:100E600040B1322000EBC900B0FBF1F000F0070008
:100E7000044308E0322000EB09106421B0FBF1F0DC
:100E800000F00F0004432C8106B0BDE8F08700009D
:100E90000038014001468888C0F308007047C1F35C
:100EA00008028280704700BFFEE702E008C8121FF8
:100EB00008C1002AFAD170477047002001E001C143
:100EC000121F002AFBD1704710B5FFF7DFFEFFF7B6
:100ED000F8FAFFF75BFC1E20FFF7D6FB002010BDE1
:100EE00010B5044600200949086001210848FFF7B1
:100EF000D9FD01210648FFF7DBFD00BF034800686C
:100F0000A042FBDB00200149086010BD1400002056
:100F100000100040340F00080000002018000000FE
:100F2000AA0E00084C0F0008180000200004000062
:100F3000BA0E0008000000000102030401020304CD
:0C0F400006070809020406080000000073
:0400000508000131BD
:00000001FF
