:020000040800F2
:1000000020040020450100082D08000825080008EC
:1000100029080008090700088F0D000800000000EB
:10002000000000000000000000000000D1090008EE
:100030000D07000800000000D9080008BD0A0008EC
:100040005F0100085F0100085F0100085F01000810
:100050005F0100085F0100085F0100085F01000800
:100060005F0100085F0100085F0100085F010008F0
:100070005F0100085F0100085F0100085F010008E0
:100080005F0100085F0100085F0100085F010008D0
:100090005F0100085F0100085F0100085F010008C0
:1000A0005F0100085F0100085F0100085F010008B0
:1000B0005F0100085F0100085F0100085F010008A0
:1000C0005F0100085F0100085F0100085F01000890
:1000D0005F010008210B00085F0100085F010008B4
:1000E0005F0100085F0100085F0100085F01000870
:1000F0005F0100085F0100085F0100085F01000860
:100100005F0100085F0100085F0100085F0100084F
:100110005F0100085F0100085F0100085F0100083F
:100120005F0100085F0100085F0100085F0100082F
:10013000DFF80CD000F0FCF8004800476D0F000815
:10014000200400200648804706480047FEE7FEE7F7
:10015000FEE7FEE7FEE7FEE7FEE7FEE7FEE7FEE777
:10016000C10A0008310100080FB400B589B00BA81E
:1001700000906A4603480A9900F0D0F809B05DF88B
:1001800014FB0000140000202DE9FF5F1D464FF016
:10019000FF3BD5E9014691465F464FF00008A9694B
:1001A0007F1C01988847296A824688470028F6D133
:1001B000BAF1FF3F0CD024F4C064002E19DD6006B4
:1001C00014D5BAF12B0F09D0BAF12D0F0ED103E0DF
:1001D000584604B0BDE8F09F44F48064A9697F1CD0
:1001E00001988847761E8246002E02DDBAF1300F54
:1001F00003D0B9F1000F26D032E0A969761E44F48D
:1002000000747F1C019888478246002E05DDBAF1F4
:10021000780F06D0BAF1580F03D0B9F1000F10D003
:100220001EE0B9F1000F02D0B9F1100F18D1A96981
:10023000761E24F400747F1C0198884782461020A3
:1002400002E0082000E00A20814609E008FB0908D6
:10025000A969761E44F400747F1C01988847824681
:10026000002E05DD4946504600F04AF80028EDDA38
:10027000E96901988847A00502D46FF00100A8E75A
:10028000E00725D1600613D5600502D5C8F100004E
:1002900000E0404629680A1D2A600968220501D548
:1002A000087015E0220701D5088011E008600FE012
:1002B0002868011D29600068210502D580F80080AA
:1002C00006E0210702D5A0F8008001E0C0F8008018
:1002D00038467EE730B50B46014600202022012437
:1002E00009E021FA02F59D4205D303FA02F5491B04
:1002F00004FA02F52844151EA2F10102F1DC30BD1A
:100300003A2800D2303820F02002412A01D3A2F14D
:100310003700884201D34FF0FF307047024B9361A2
:10032000024BD36100F032B8290F000871030008B6
:10033000064C074D06E0E06840F0010394E8070032
:1003400098471034AC42F6D3FFF7F6FED80F0008FA
:10035000F80F0008094910B508784C1C18B1401E68
:100360000870205C10BD00210720ABBE207010BDBE
:1003700002490878421C0A70704700001C000020E7
:10038000026811441378016018467047D16004492F
:1003900051610449116200211161114600F00AB84F
:1003A00081030008A9030008C0B24FF4F05100F027
:1003B00097B900002DE9F34F8BB04FF0000801F121
:1003C0000C000C464FF0010B46460DF1080A019057
:1003D0006269012101989047051E2DD0252D2CD052
:1003E000216A8847C0B16269012101989047216A5A
:1003F00088470028F7D1411E62690198904700E0C4
:10040000761CA1690B988847216A88470028F7D194
:10041000E1690B988847DBE7A1690B988847074695
:10042000A84201D1761CD3E7E1690B9888477F1C6D
:1004300002D1B8F1000F6FD046E1002762693D4656
:100440003946019890472A2804D162690121019810
:1004500090470125DFF88492626901210198904755
:10046000A0F130010A290AD24F45E5DC07EB8701EC
:1004700000EB4107303FDFD445F01005ECE7E9061B
:1004800001D46FF000476C280AD04C2814D068289B
:1004900015D06A280DD074281CD07A281AD01DE0F7
:1004A00062690121019890476C2802D045F004054B
:1004B00014E045F002050DE045F020050AE0626910
:1004C000012101989047682802D045F0080505E011
:1004D00045F400656269012101989047C4E901571C
:1004E00065283DD019DC58287AD00CDC452837D057
:1004F00004DC252826D0412831D131E046282FD0F0
:1005000047282CD12CE05B2877D0612828D063289D
:100510007CD0642823D15AE0D0E06F2848D008DC92
:1005200066281DD067281BD0692821D06E2816D1D7
:1005300027E0702845D0732868D0752847D07828E0
:100540000DD14DE0A1690B988847054625283FF459
:1005500069AFE1690B9888476D1C3FF46AAFB3E05F
:1005600023466A466FF001000B99AFF300809EE0CE
:1005700045F040006060A80723464FF0000236D4E3
:100580003EE0E8077FF447AF2068011D2160006866
:10059000290501D506701BE7290701D5068017E755
:1005A000A90703D5F117C0E9006111E706600FE75D
:1005B00045F040006060A80723464FF0080216D4BB
:1005C0001EE040F60E0125EA0100606016E045F0ED
:1005D00040006060A80723464FF00A0207D40FE0EE
:1005E00045F040006060A80708D5234610226FF050
:1005F00001000B99AFF3008059E007E02346102279
:100600006FF001000B99FFF7BFFD50E04FF00009BC
:100610004F464B46632802D05B2806D040E0E806F0
:1006200001D40120A06001273AE06269012101980C
:1006300090475E2805D14FF001096269494601984B
:100640009047216939B900210A46534643F82120D1
:10065000491C0829FADBB0B3216969B9C11700EB5D
:10066000D16253110AEB830122F01F02821A01208A
:100670000B68904003430B60626901210198904729
:100680005D28E8D1B9F1000F09D00020514651F89A
:100690002020D24341F82020401C0828F7DB02AB81
:1006A000224600976FF001000B99AFF300800028FD
:1006B0000CDA401C08D1BBF1000F05D04FF0FF3021
:1006C0000DB0BDE8F08FFFE74046F9E7E90701D13B
:1006D00008F1010806444FF0000B79E6CCCCCC0CB5
:1006E0007F2801D9002208E0064A02EB5002C00729
:1006F000127800D1120902F00F0201209040084048
:1007000070470000980F000800BFFEE770472DE912
:10071000F041024600250026002000230024002787
:1007200091F803C00CF00F0591F803C00CF0100C09
:10073000BCF1000F03D091F802C04CEA050591F816
:1007400000C0BCF1000F31D0146800202BE04FF046
:10075000010C0CFA00F3B1F800C00CEA03069E424B
:1007600020D183004FF00F0C0CFA03F7BC4305FABD
:1007700003FC4CEA040491F803C0BCF1280F06D135
:100780004FF0010C0CFA00FCC2F814C00AE091F81A
:1007900003C0BCF1480F05D14FF0010C0CFA00FC6E
:1007A000C2F810C0401C0828D1D31460B1F800C0B2
:1007B000BCF1FF0F34DD546800202EE000F1080C7E
:1007C0004FF0010808FA0CF3B1F800C00CEA030678
:1007D0009E4221D183004FF00F0C0CFA03F7BC436B
:1007E00005FA03FC4CEA040491F803C0BCF1280F9D
:1007F00005D100F1080C08FA0CF8C2F8148091F841
:1008000003C0BCF1480F07D100F1080C4FF00108FC
:1008100008FA0CF8C2F81080401C0828CED35460A7
:10082000BDE8F08100BFFEE700BFFEE7704708B5F6
:100830004FF4A06000F046F825208DF8000001205C
:100840008DF801008DF802008DF80300684600F075
:1008500001F808BD70B5002100230F22C47804B34D
:10086000154C246804F4E064C4F5E064210AC1F185
:100870000403CA40447804FA03F184781440214305
:1008800009010E4C0678A155047804F01F050124D7
:10089000AC4005786D11AD0005F1E025C5F80041CB
:1008A00009E0047804F01F050124AC40044D0678EB
:1008B000761145F8264070BD0CED00E000E400E044
:1008C00080E100E002490143024A116070470000E4
:1008D0000000FA050CED00E07047000029B1064A5F
:1008E00092690243044B9A6104E0034A926982438D
:1008F000014B9A61704700000010024030B50021A2
:100900000022002400232D4D6D6805F00C0121B15B
:10091000042905D0082923D105E0294D056022E0EE
:10092000274D05601FE0254D6D6805F47012234DBD
:100930006D6805F48034022505EB92421CB9214D07
:10094000554305600BE01D4D6D6805F400351DB184
:100950001C4D5543056002E0194D5543056002E00A
:10096000174D056000BF00BF144D6D6805F0F00124
:100970000909154D6B5C0568DD4045600F4D6D68DC
:1009800005F4E061090A104D6B5C4568DD40856047
:100990000A4D6D6805F46051C90A0B4D6B5C4568E2
:1009A000DD40C560054D6D6805F44041890B074D7C
:1009B0006B5CC568B5FBF3F5056130BD0010024006
:1009C00000127A0000093D00000000201000002005
:1009D000704710B500F002F810BD00000CB5002003
:1009E000019000903348006840F48030314908603D
:1009F00000BF3048006800F4003000900198401CAF
:100A00000190009818B90198B0F5A06FF1D129486C
:100A1000006800F4003010B10120009001E00020D7
:100A200000900098012843D12348006840F010004E
:100A3000214908600846006820F003000860084665
:100A4000006840F0020008601A4840681949486090
:100A50000846406848600846406840F48060486046
:100A60000846406820F47C1048600846406840F41E
:100A7000E81048600846006840F08070086000BFD9
:100A80000C48006800F000700028F9D00948406860
:100A900020F00300074948600846406840F0020023
:100AA000486000BF0348406800F00C000828F9D1F6
:100AB0000CBD000000100240002002407047000002
:100AC00010B51348006840F001001149086008465D
:100AD0004068104908400E494860084600680E49C1
:100AE00008400B4908600846006820F48020086030
:100AF0000846406820F4FE0048604FF41F008860FC
:100B0000FFF767FF4FF000600449086010BD000068
:100B1000001002400000FFF8FFFFF6FE08ED00E0C5
:100B200010B540F22551064800F06DF838B1044880
:100B300000F024F9C4B22146014800F024F910BDA8
:100B40000038014021B1828942F40052828104E0E0
:100B500082894DF6FF731A408281704700B585B0D7
:100B600001210420FFF7BAFE01218803FFF7B6FE3A
:100B70004FF40070ADF8100018208DF8130003201A
:100B80008DF8120004A91748FFF7C1FD4FF48060EB
:100B9000ADF8100004208DF8130004A91148FFF7E8
:100BA000B6FD4FF4E13000900020ADF80400ADF840
:100BB0000600ADF80800ADF80C000C20ADF80A00F6
:100BC0006946094800F06EF8FFF731FE012240F255
:100BD0002551054800F041F801210348FFF7B2FF15
:100BE00005B000BD00080140003801400246002069
:100BF000B1F5007F00D100BF13880B400BB101207D
:100C000000E00020704770B5024600240023002554
:100C1000002040F66A16B14200D100BFC1F3421570
:100C200001F01F03012606FA03F3012D02D1968974
:100C3000334006E0022D02D1168A334001E0968A45
:100C400033400C12012606FA04F41688344013B11E
:100C50000CB1012000E0002070BDF0B50346002477
:100C600000260025002040F66A17B94200D100BFD7
:100C70001846C1F3421401F01F06012707FA06F5D2
:100C8000012C01D10C3004E0022C01D1103000E025
:100C900014301AB107682F43076002E00768AF43BA
:100CA0000760F0BD2DE9F04786B005460E460024EA
:100CB000A24600BFA1460027B08900B100BF2F4661
:100CC0002C8A4CF6FF700440F08804432C82AC89D7
:100CD0004EF6F3100440B088318908437189084307
:100CE0000443AC81AC8A4FF6FF400440B089044312
:100CF000AC8201A8FFF702FE1F48874202D1DDF84F
:100D000010A001E0DDF80CA0A88900F4004040B17B
:100D10000AEBCA0000EB0A1031684900B0FBF1F899
:100D200007E00AEBCA0000EB0A1031688900B0FB4B
:100D3000F1F86420B8FBF0F004012009642101FB04
:100D40001089A88900F4004040B1322000EBC900AE
:100D5000B0FBF1F000F00700044308E0322000EBA4
:100D600009106421B0FBF1F000F00F0004432C8166
:100D700006B0BDE8F08700000038014001468888D1
:100D8000C0F308007047C1F308028280704700BFBB
:100D9000FEE700000FB4054B10B503A9044A029802
:100DA00000F018F810BC5DF814FB0000490F0008B3
:100DB0001800002002E008C8121F08C1002AFAD15A
:100DC00070477047002001E001C1121F002AFBD1CB
:100DD000704700002DE9FF4F89B09B46044600256F
:100DE00006E025280BD05A460B999047641C6D1CD1
:100DF00020780028F5D10DB02846BDE8F08F0027F7
:100E0000B8460122474900E0074314F8013F203B60
:100E100002FA03F00842F7D120782E2819D114F8ED
:100E2000010F47F004072A280ED06FF02F02207818
:100E3000A0F1300109290CD808EB880102EB41012F
:100E400000EB0108641CF2E70A98641C50F8048B5C
:100E50000A9020780028CED0642808D0692806D0CF
:100E600075281ED05A460B9990476D1C58E00A9978
:100E70004FF00A0901C90A91002802DA40422D21E7
:100E800002E0390504D52B218DF82010012103E063
:100E9000F90704D02021F7E78A4608AE0DE00021CB
:100EA000FAE70A994FF00A0901C90A91F7E749469A
:100EB000FFF710FA303106F8011D0028F7D1ADEB2D
:100EC000060000F12009780701D44FF00108C84559
:100ED00002DDA8EB090000E000208046002706E0C4
:100EE00008A85A46C05D0B9990476D1C7F1C57455A
:100EF000F6DB04E030205A460B9990476D1CB8F1A0
:100F00000001A8F10108F5DC05E016F8010B5A46CE
:100F10000B9990476D1CB9F10001A9F10109F4DCAE
:100F2000641C65E70928010010B5044600BF2021B4
:100F30000448FFF75BFE0028F9D00248FFF71EFFC8
:100F400010BD00000038014070B504460D46E1B206
:100F50000548FFF718FF00BF80210348FFF746FE52
:100F60000028F9D0204670BD0038014008B5FFF7D1
:100F7000F5FD06A0FFF70EFF694606A0FFF7F4F89F
:100F800003E004A00099FFF705FFFAE768686868C6
:100F90006800000025640000DDDDDDDDDCBBBBDDBD
:100FA000DDDDDDDDDDDDDDDD988888888888888809
:100FB0007777777777888888855555566666666629
:100FC0006666666666688888833333322222222208
:100FD000222222222228888DF80F000800000020FB
:100FE00020000000B40D00081810000820000020A8
:100FF00000040000C40D000800000000010203040A
:1010000001020304060708090204060800000000A4
:081010000000000000000000D8
:0400000508000131BD
:00000001FF
